:1000000021C03BC03AC039C038C037C036C035C047
:1000100034C033C032C031C030C02FC02FC02DC05B
:100020002CC02BC02AC029C028C027C026C025C08C
:1000300024C023C03FC14BC18BC1A9C1E8C1F5C1D8
:1000400034C252C211241FBECFEFD4E0DEBFCDBFF9
:1000500011E0A4E0B1E001C01D92A532B107E1F7C3
:1000600011E0A0E0B1E0E6E7F8E002C005900D92F3
:10007000A430B107D9F7E1D2FCC3C2CF1F920F92CF
:100080000FB60F9211242F933F934F935F936F936B
:100090007F938F939F93AF93BF93EF93FF9315B885
:1000A000809105018F5F8770809305012091050184
:1000B00081E090E0022E01C0880F0A94EAF7809553
:1000C000982F9F70906398B9807F8BB9E09105015C
:1000D000F0E0E35EFE4F808185B9809104018F5F7F
:1000E00080930401823390F01092040186B190E075
:1000F0008095909524E0959587952A95E1F78370F2
:10010000992780930C011092B00058D0FF91EF9185
:10011000BF91AF919F918F917F916F915F914F911F
:100120003F912F910F900FBE0F901F901895811146
:1001300002C089EA01C08AE28093B30082E1809321
:10014000B0000895CF93DF9321E020930D0110922A
:100150000E0181E090E09093100180930F012093B5
:10016000130110921401909316018093150180E001
:1001700090E000D3F4D2EFD2BC0180E090E0FFD257
:10018000EAD2877099278093190184E080931A013D
:10019000C7E0D0E0E0D2BE016AD290931C01809308
:1001A0001B010097B9F384309105A1F382309105CA
:1001B00089F3069779F3DF91CF91089580910C012F
:1001C000813021F080910C01833061F480910D0128
:1001D000873040F48F5F80930D0180910E018F5F17
:1001E00080930E0180910C01823021F080910C01EE
:1001F000833061F480911301873040F48F5F8093E6
:100200001301809114018F5F809314018091080184
:1002100090910901823091058CF180910C01882325
:1002200021F080910C01823081F490910E0199238C
:1002300041F080910D01815080930D019150909378
:100240000E01109209011092080180910C0188237F
:1002500021F080910C018130B1F490911401992327
:1002600041F080911301815080931301915090933C
:100270001401109209011092080105C00196909393
:1002800009018093080180910A0190910B0183304C
:1002900091050CF4B7C1E0911B01F0911C01E8300D
:1002A000F10508F062C1E65EFF4F8091190190915F
:1002B0001A010994873018F48F5F80931901809197
:1002C0001901873008F451C184E090E04AC18730B9
:1002D00018F48F5F8093190180911A01882319F017
:1002E000815080931A0120911901273018F083E082
:1002F00090E006C080911A01811106C087E090E06D
:1003000090931C0180931B0180911301281721F009
:100310008091140128130AC080911A01813031F4B0
:1003200087E090E090931C0180931B01273009F037
:100330001CC180911A01813009F017C180911B0105
:1003400090911C01079709F010C185E090E009C168
:10035000992319F0915090931A0120911A012111BB
:1003600006C086E090E090931C0180931B01809171
:10037000190190911301891721F0909114018913AB
:10038000F4C0213009F0F1C086E090E0EAC0882393
:1003900019F081508093190180911A01882319F076
:1003A000815080931A0120911901211103C081E02D
:1003B00090E006C080911A01811106C085E090E0AE
:1003C00090931C0180931B0180911301281721F049
:1003D0008091140128130AC080911A01813031F4F0
:1003E00085E090E090931C0180931B012111BDC01A
:1003F00080911A01813009F0B8C080911B01909161
:100400001C01059709F0B1C087E090E0AAC08823DD
:1004100019F0815080931901809119018111A5C0B3
:1004200010921C0110921B01A0C0882319F081506A
:100430008093190180911A01873018F48F5F80939F
:100440001A0120911901211103C087E090E006C034
:1004500080911A01873030F083E090E090931C0186
:1004600080931B0180910D01281721F080910E01CE
:1004700028130AC080911A01863031F483E090E09D
:1004800090931C0180931B0121116FC080911A0170
:10049000863009F06AC080911B0190911C0103977E
:1004A00009F063C081E090E05CC0973018F49F5F72
:1004B00090931A0120911A01273030F082E090E0E9
:1004C00090931C0180931B018091190190910D0163
:1004D000891721F090910E01891347C0263009F049
:1004E00044C082E090E03DC0873018F48F5F809375
:1004F000190180911A01873018F48F5F80931A01D7
:1005000020911901273018F085E090E006C0809115
:100510001A01873030F081E090E090931C018093C5
:100520001B0180910D01281721F080910E012813E5
:100530000AC080911A01863031F481E090E09093F6
:100540001C0180931B01273081F480911A018630B1
:1005500061F480911B0190911C01019731F483E0BB
:1005600090E090931C0180931B0110920B0110925C
:100570000A0110921D0110921E0110921F0110928B
:100580002001109221011092220110922301109259
:100590002401E0910D01F0E0E35EFE4F8081806870
:1005A0008083E0910E01F0E0E35EFE4F8081806881
:1005B0008083E0911301F0E0E35EFE4F8081816073
:1005C0008083E0911401F0E0E35EFE4F8081816062
:1005D0008083E0911901F0E0E35EFE4F30812091CD
:1005E0001A0181E090E0022E01C0880F0A94EAF718
:1005F000382B30838091060190910701833091055B
:100600003CF415C0019690930B0180930A01B1CF81
:10061000211103C080E08BDDFFCF273019F480E08B
:1006200086DDFFCF10920701109206010895019612
:10063000909307018093060108958FEF84B98FE0AE
:1006400087B98AEF8AB989EF87BD82E084BD83E0EC
:1006500085BD80916E00826080936E0084E48093FB
:10066000B1001092B0006EDD7894A895FECF97FB94
:10067000072E16F4009406D077FD08D00BD007FCA7
:1006800005D03EF4909581959F4F089570956195A2
:100690007F4F0895AA1BBB1B51E107C0AA1FBB1FB8
:1006A000A617B70710F0A61BB70B881F991F5A95FE
:1006B000A9F780959095BC01CD0108958F929F92E6
:1006C000AF92BF92CF92DF92EF92FF92CF93DF93E0
:1006D000EC01688179818A819B81611571058105B1
:1006E000910521F464E279ED8BE597E02DE133EF9C
:1006F00041E050E075D049015A019B01AC01A7EAE5
:10070000B1E45ED06B017C01ACEEB4EFA5019401C5
:1007100063D0C60ED71EE81EF91EF7FE06C081E0A4
:10072000C81AD108E10880E8F80AC882D982EA82AA
:10073000FB82E894D7F8EE24FF24C601DF91CF9125
:10074000FF90EF90DF90CF90BF90AF909F908F90F1
:100750000895B4DF089580E091E0B0DF0895A0E04F
:10076000B0E08093000190930101A0930201B09347
:1007700003010895A8E1B0E042E050E005C012D0C6
:10078000272F11C0DC01CB01FC01F999FECF06C077
:10079000F2BDE1BDF89A319600B40D92415050403F
:1007A000B8F70895262FF999FECF1FBA92BD81BDE3
:1007B00020BD0FB6F894FA9AF99A0FBE01960895E3
:1007C0002AD0A59F900DB49F900DA49F800D911DE0
:1007D00011240895B7FFF4CFF3DF821B930B089524
:1007E000052E97FB16F4009406D057FD0CD01FD0B1
:1007F00007FC09D07EF490958095709561957F4FA8
:100800008F4F9F4F089550954095309521953F4FBC
:100810004F4F5F4F0895A29FB001B39FC001A39FA8
:1008200001D0B29F700D811D1124911D0895A1E288
:100830001A2EAA1BBB1BFD010DC0AA1FBB1FEE1F5A
:10084000FF1FA217B307E407F50720F0A21BB30BA5
:10085000E40BF50B661F771F881F991F1A9469F721
:1008600060957095809590959B01AC01BD01CF017D
:060870000895F894FFCF8B
:04087600010000007D
:00000001FF
