:1000000021C03BC03AC039C038C037C036C035C047
:1000100034C033C032C031C030C02FC02FC02DC05B
:100020002CC02BC02AC029C028C027C026C025C08C
:1000300024C023C049C155C199C1B9C1FCC109C27D
:100040004CC272C211241FBECFEFD4E0DEBFCDBFC1
:1000500011E0A0E0B1E0E0E0FAE002C005900D920E
:10006000A43CB107D9F711E0A4ECB1E001C01D92A6
:10007000A53EB107E1F7A6D3C1C4C2CF1F920F922C
:100080000FB60F9211242F933F934F935F936F936B
:100090007F938F939F93AF93BF93EF93FF9315B885
:1000A0008091C5018F5F87708093C5012091C50144
:1000B00081E090E0022E01C0880F0A94EAF7809553
:1000C000982F9F70906398B9807F8BB9E091C5019C
:1000D000F0E0E352FE4F808185B98091C4018F5FCB
:1000E0008093C401823390F01092C40186B190E0F5
:1000F0008095909524E0959587952A95E1F78370F2
:1001000099278093D0011092B0005BD0FF91EF91BE
:10011000BF91AF919F918F917F916F915F914F911F
:100120003F912F910F900FBE0F901F901895811146
:1001300002C089EA01C08AE28093B30082E1809321
:10014000B000089580E090E0DAD3CED3C9D3BC01EB
:1001500080E090E0D9C3CF93DF9381E08093D10119
:100160001092D2011092D4011092D3018093D50144
:100170001092D6011092D8011092D7011092C701A7
:100180001092C601DFDFACD3877099278093D90125
:1001900084E08093DA01C7E0D0E0A2D3BE012CD383
:1001A0009093DC018093DB010097B9F384309105D3
:1001B000A1F38230910589F3069779F3DF91CF910E
:1001C0000895CF93DF938091C6019091C701892B49
:1001D00009F0F3C18091D001813021F08091D001EC
:1001E000833061F48091D101873040F48F5F809338
:1001F000D1018091D2018F5F8093D2018091D00193
:10020000823021F08091D001833061F48091D5015A
:10021000873040F48F5F8093D5018091D6018F5F46
:100220008093D6018091CC019091CD0182309105CF
:100230008CF18091D001882321F08091D00182300F
:1002400081F49091D201992341F08091D1018150A4
:100250008093D10191509093D2011092CD011092D0
:10026000CC018091D001882321F08091D001813090
:10027000B1F49091D601992341F08091D50181503C
:100280008093D50191509093D6011092CD01109298
:10029000CC0105C001969093CD018093CC01809153
:1002A000CE019091CF01833091050CF49DC1E09176
:1002B000DB01F091DC01E830F10508F07AC1E65E7F
:1002C000FF4F8091D9010994873018F48F5F809394
:1002D000D9018091D901873008F46BC184E090E0A6
:1002E00064C1873018F48F5F8093D9018091DA015F
:1002F000882319F081508093DA012091D9012730A9
:1003000018F083E090E006C08091DA01811106C008
:1003100087E090E09093DC018093DB018091D50130
:10032000281721F08091D60128130CC08091DA01A2
:10033000813041F487E090E09093DC018093DB0111
:1003400080E0F5DE8091D901873009F032C18091DB
:10035000DA01813009F02DC18091DB019091DC013F
:10036000079709F026C185E090E01FC18091DA016E
:10037000882319F081508093DA012091DA0121114C
:1003800006C086E090E09093DC018093DB018091D1
:10039000D9019091D501891721F09091D601891347
:1003A00008C1213009F005C186E090E0B6C088237D
:1003B00019F081508093D9018091DA01882319F0D6
:1003C00081508093DA012091D901211103C081E08D
:1003D00090E006C08091DA01811106C085E090E0CE
:1003E0009093DC018093DB018091D501281721F0E7
:1003F0008091D60128130CC08091DA01813041F43C
:1004000085E090E09093DC018093DB0180E08FDE5B
:100410008091D9018111CDC08091DA01813009F03C
:10042000C8C08091DB019091DC01059709F0C1C043
:1004300087E090E0BAC0882319F081508093D901F9
:100440008091D9018111B5C01092DC011092DB01BD
:10045000B0C0882319F081508093D9018091DA01CE
:10046000873018F48F5F8093DA012091D901211130
:1004700003C087E090E006C08091DA01873030F059
:1004800083E090E09093DC018093DB018091D101C7
:10049000281721F08091D20128130CC08091DA0135
:1004A000863041F483E090E09093DC018093DB019F
:1004B00080E03DDE8091D90181117BC08091DA011D
:1004C000863009F076C08091DB019091DC010397C2
:1004D00009F06FC081E090E068C08091DA01873058
:1004E00018F48F5F8093DA012091DA01273030F021
:1004F00082E090E09093DC018093DB018091D90150
:100500009091D101891721F09091D201891351C0A6
:10051000263009F04EC082E090E09093DC01809399
:10052000DB0180E004DE45C0873018F48F5F8093E4
:10053000D9018091DA01873018F48F5F8093DA0156
:100540002091D901273018F085E090E006C0809115
:10055000DA01873030F081E090E09093DC01809305
:10056000DB018091D101281721F08091D20128135D
:100570000CC08091DA01863041F481E090E09093E4
:10058000DC018093DB0180E0D2DD8091D9018730EE
:1005900081F48091DA01863061F48091DB019091E1
:1005A000DC01019731F483E090E09093DC018093CB
:1005B000DB011092CF011092CE011092DD0110925A
:1005C000DE011092DF011092E0011092E101109221
:1005D000E2011092E3011092E4018091C601909132
:1005E000C701892B39F480C001969093CF01809385
:1005F000CE01E3CF2091D3013091D40184E0220FCA
:10060000331F8A95E1F7205A3E4F8091D701909190
:10061000D80144E0880F991F4A95E1F780509F4F19
:1006200060E070E047E050E0FA01E352FE4FC08125
:10063000D901A60FB71FAC91CA2BC083C081DC01C2
:10064000A60FB71FAC91CA2BC083415051096E5FF2
:100650007F4F4F3FEFEF5E0739F78091C8019091D0
:10066000C90101969093C9018093C8010A970CF4BF
:100670006CC081E08093D1011092D2018093D501AA
:100680001092D6015FDD2CD1877099278093D90114
:1006900084E08093DA01C7E0D0E022D1BE01ACD083
:1006A0009093DC018093DB010097B9F384309105CE
:1006B000A1F38230910589F3069779F38091D301F4
:1006C0009091D401059734F48091D7019091D8018D
:1006D00005970CF0FFCF1092C7011092C60110923F
:1006E000C9011092C80131C0E091D101F0E0E3529C
:1006F000FE4F808180688083E091D201F0E0E35278
:10070000FE4F808180688083E091D501F0E0E35264
:10071000FE4F808181608083E091D601F0E0E3525A
:10072000FE4F808181608083E091D901F0E0E35247
:10073000FE4F208181E090E00090DA0102C0880F36
:10074000991F0A94E2F7282B20838091C60190918B
:10075000C701892BA1F58091CA019091CB0183300B
:10076000910544F18091DA0181110CC081E0DFDC58
:100770008091D3019091D40101969093D4018093FC
:10078000D3010DC0873089F481E0D1DC8091D7019D
:100790009091D80101969093D8018093D70181E080
:1007A00090E09093C7018093C6011092CB01109204
:1007B000CA0105C001969093CB018093CA01DF91D5
:1007C000CF9108958FEF84B98FE087B98AEF8AB906
:1007D00089EF87BD82E084BD83E085BD80916E0096
:1007E000826080936E0084E48093B1001092B00028
:1007F000B2DC7894A895FECF97FB072E16F40094F0
:1008000006D077FD08D00BD007FC05D03EF49095BC
:1008100081959F4F0895709561957F4F0895AA1B0C
:10082000BB1B51E107C0AA1FBB1FA617B70710F0DB
:10083000A61BB70B881F991F5A95A9F7809590950D
:10084000BC01CD0108958F929F92AF92BF92CF923B
:10085000DF92EF92FF92CF93DF93EC016881798171
:100860008A819B81611571058105910521F464E2FE
:1008700079ED8BE597E02DE133EF41E050E075D065
:1008800049015A019B01AC01A7EAB1E45ED06B01BA
:100890007C01ACEEB4EFA501940163D0C60ED71E67
:1008A000E81EF91EF7FE06C081E0C81AD108E1086B
:1008B00080E8F80AC882D982EA82FB82E894D7F8F5
:1008C000EE24FF24C601DF91CF91FF90EF90DF90DF
:1008D000CF90BF90AF909F908F900895B4DF089510
:1008E00080EC91E0B0DF0895A0E0B0E08093C0011B
:1008F0009093C101A093C201B093C3010895A8E1F0
:10090000B0E042E050E005C012D0272F11C0DC015A
:10091000CB01FC01F999FECF06C0F2BDE1BDF89A0A
:10092000319600B40D9241505040B8F70895262FEB
:10093000F999FECF1FBA92BD81BD20BD0FB6F894C4
:10094000FA9AF99A0FBE019608952AD0A59F900DA4
:10095000B49F900DA49F800D911D11240895B7FFA1
:10096000F4CFF3DF821B930B0895052E97FB16F44B
:10097000009406D057FD0CD01FD007FC09D07EF4A0
:1009800090958095709561957F4F8F4F9F4F0895FB
:1009900050954095309521953F4F4F4F5F4F0895AB
:1009A000A29FB001B39FC001A39F01D0B29F700D61
:1009B000811D1124911D0895A1E21A2EAA1BBB1BB3
:1009C000FD010DC0AA1FBB1FEE1FFF1FA217B3071B
:1009D000E407F50720F0A21BB30BE40BF50B661F31
:1009E000771F881F991F1A9469F7609570958095F5
:1009F00090959B01AC01BD01CF010895F894FFCF04
:100A000000000700050005000500070000000000C9
:100A100000000600020002000200070000000000C3
:100A200000000700010002000400070000000000B1
:100A3000000007000100070001000700000000009F
:100A40000000050005000700010001000000000093
:100A5000000007000400070001000700000000007C
:100A60000000E000A000A000A000E00000000000E6
:100A70000000C000400040004000E0000000000016
:100A80000000E000200040008000E00000000000C6
:100A90000000E0002000E0002000E0000000000076
:100AA0000000A000A000E0002000200000000000E6
:100AB0000000E0008000E0002000E00000000000F6
:040AC0000100000031
:00000001FF
